:020000040800F2
:10000000005000202D2F00081D2E00081F2E000874
:10001000212E0008232E0008252E000800000000D5
:10002000000000000000000000000000272E000873
:10003000292E0008000000002B2E00082D2E00089D
:10004000752F0008752F0008752F0008752F000800
:10005000752F0008752F0008752F0008752F0008F0
:10006000752F0008752F0008752F0008752F0008E0
:10007000752F0008752F0008752F0008752F0008D0
:10008000752F0008752F0008752F0008752F0008C0
:10009000752F0008752F0008752F0008752F0008B0
:1000A000752F0008312E0008752F0008752F0008E5
:1000B000752F0008752F0008752F0008752F000890
:1000C000752F0008752F0008752F0008752F000880
:1000D000752F0008752F0008752F0008752F000870
:1000E000752F0008752F0008752F0008000000000C
:1000F0000000000000000000000000000000000000
:0C01000000000000000000005FF808F1A3
:1001100010B5054C237833B9044B13B10448AFF341
:1001200000800123237010BDDC01002000000000CE
:10013000B85D000808B5034B1BB103490348AFF392
:10014000008008BD00000000E0010020B85D00084C
:10015000034613F8012B002AFBD1181A0138704707
:100160004FF0FF0C1CEAD0521EBF1CEAD15392EA9A
:100170000C0F93EA0C0F6FD01A4480EA010C400276
:1001800018BF5FEA41211ED04FF0006343EA5010D0
:1001900043EA5111A0FB01310CF00040B1F5000F12
:1001A0003EBF490041EAD3715B0040EA010062F1C1
:1001B0007F02FD2A1DD8B3F1004F40EBC25008BFAB
:1001C00020F00100704790F0000F0CF0004C08BFC9
:1001D00049024CEA502040EA51207F3AC2BFD2F196
:1001E000FF0340EAC250704740F400004FF00003A4
:1001F000013A5DDC12F1190FDCBF00F000407047DE
:10020000C2F10002410021FA02F1C2F1200200FA1B
:1002100002FC5FEA310040F1000053EA4C0308BFE2
:1002200020EADC70704792F0000F00F0004C02BF33
:10023000400010F4000F013AF9D040EA0C0093F0AE
:10024000000F01F0004C02BF490011F4000F013B08
:10025000F9D041EA0C018FE70CEAD15392EA0C0F76
:1002600018BF93EA0C0F0AD030F0004C18BF31F0E1
:10027000004CD8D180EA010000F00040704790F0B7
:10028000000F17BF90F0004F084691F0000F91F05B
:10029000004F14D092EA0C0F01D142020FD193EA21
:1002A0000C0F03D14B0218BF084608D180EA0100A9
:1002B00000F0004040F0FE4040F40000704740F085
:1002C000FE4040F44000704781F0004102E000BF72
:1002D00083F0004330B54FEA41044FEA430594EA06
:1002E000050F08BF90EA020F1FBF54EA000C55EA41
:1002F000020C7FEA645C7FEA655C00F0E2804FEA12
:100300005454D4EB5555B8BF6D420CDD2C4480EAF3
:10031000020281EA030382EA000083EA010180EA23
:10032000020281EA0303362D88BF30BD11F0004F71
:100330004FEA01314FF4801C4CEA113102D04042A7
:1003400061EB410113F0004F4FEA03334CEA1333E2
:1003500002D0524263EB430394EA050F00F0A780FA
:10036000A4F10104D5F1200E0DDB02FA0EFC22FAF5
:1003700005F2801841F1000103FA0EF2801843FAE9
:1003800005F359410EE0A5F120050EF1200E012ADA
:1003900003FA0EFC28BF4CF0020C43FA05F3C01818
:1003A00051EBE37101F0004507D54FF0000EDCF191
:1003B000000C7EEB00006EEB0101B1F5801F1BD33A
:1003C000B1F5001F0CD349085FEA30004FEA3C0C3E
:1003D00004F101044FEA445212F5800F80F09A8034
:1003E000BCF1004F08BF5FEA500C50F1000041EB38
:1003F000045141EA050130BD5FEA4C0C404141EB3C
:100400000101013C28BFB1F5801FE9D291F0000F36
:1004100004BF01460020B1FA81F308BF2033A3F1E5
:100420000B03B3F120020CDA0C3208DD02F1140CDC
:10043000C2F10C0201FA0CF021FA02F10CE002F117
:100440001402D8BFC2F1200C01FA02F120FA0CFC10
:10045000DCBF41EA0C019040E41AA2BF01EB045159
:10046000294330BD6FEA04041F3C1CDA0C340EDC57
:1004700004F11404C4F1200220FA04F001FA02F39A
:1004800040EA030021FA04F345EA030130BDC4F158
:100490000C04C4F1200220FA02F001FA04F340EA4D
:1004A0000300294630BD21FA04F0294630BD94F0FE
:1004B000000F83F4801306BF81F480110134013DE5
:1004C0004EE77FEA645C18BF7FEA655C29D094EA56
:1004D000050F08BF90EA020F05D054EA000C04BFD4
:1004E0001946104630BD91EA030F1EBF00210020BF
:1004F00030BD5FEA545C05D14000494128BF41F05E
:10050000004130BD14F580043CBF01F5801130BDC1
:1005100001F0004545F0FE4141F470014FF000004C
:1005200030BD7FEA645C1ABF194610467FEA655CFD
:100530001CBF0B46024650EA013406BF52EA03359F
:1005400091EA030F41F4002130BD00BF90F0000F8D
:1005500004BF0021704730B54FF4806404F13204C9
:100560004FF000054FF0000150E700BF90F0000F82
:1005700004BF0021704730B54FF4806404F13204A9
:1005800010F0004548BF40424FF000013EE700BF79
:1005900042004FEAE2014FEA31014FEA02701FBF09
:1005A00012F07F4393F07F4F81F06051704732F03B
:1005B0007F4208BF704793F07F4F04BF41F4002192
:1005C000704730B54FF4607401F0004521F00041F0
:1005D0001CE700BF50EA010208BF704730B54FF07A
:1005E00000050AE050EA010208BF704730B511F07B
:1005F000004502D5404261EB41014FF4806404F1B3
:1006000032045FEA915C3FF4D8AE4FF003025FEA38
:10061000DC0C18BF03325FEADC0C18BF033202EBBC
:10062000DC02C2F1200300FA03FC20FA02F001FA16
:1006300003FE40EA0E0021FA02F11444BDE600BFB9
:1006400070B54FF0FF0C4CF4E06C1CEA11541DBF68
:100650001CEA135594EA0C0F95EA0C0F00F0DEF833
:100660002C4481EA030621EA4C5123EA4C5350EA18
:10067000013518BF52EA033541F4801143F4801369
:1006800038D0A0FB02CE4FF00005E1FB02E506F0FA
:100690000042E0FB03E54FF00006E1FB03569CF04F
:1006A000000F18BF4EF0010EA4F1FF04B6F5007F55
:1006B00064F5407404D25FEA4E0E6D4146EB0606C7
:1006C00042EAC62141EA55514FEAC52040EA5E5050
:1006D0004FEACE2EB4F1FD0C88BFBCF5E06F1ED8FA
:1006E000BEF1004F08BF5FEA500E50F1000041EB31
:1006F000045170BD06F0004646EA010140EA0200DE
:1007000081EA0301B4EB5C04C2BFD4EB0C0541EAFF
:10071000045170BD41F480114FF0000E013C00F314
:10072000AB8014F1360FDEBF002001F0004170BD38
:10073000C4F10004203C35DA0C341BDC04F1140451
:10074000C4F1200500FA05F320FA04F001FA05F2DD
:1007500040EA020001F0004221F0004110EBD370AA
:1007600021FA04F642EB06015EEA430E08BF20EAD6
:10077000D37070BDC4F10C04C4F1200500FA04F379
:1007800020FA05F001FA04F240EA020001F000410B
:1007900010EBD37041F100015EEA430E08BF20EA7E
:1007A000D37070BDC4F1200500FA05F24EEA020EC6
:1007B00020FA04F301FA05F243EA020321FA04F0F5
:1007C00001F0004121FA04F220EA020000EBD370AC
:1007D0005EEA430E08BF20EAD37070BD94F0000FAC
:1007E0000FD101F00046400041EB010111F4801FE0
:1007F00008BF013CF7D041EA060195F0000F18BF91
:10080000704703F00046520043EB030313F4801FCC
:1008100008BF013DF7D043EA0603704794EA0C0F86
:100820000CEA135518BF95EA0C0F0CD050EA41069C
:1008300018BF52EA4306D1D181EA030101F0004119
:100840004FF0000070BD50EA410606BF1046194641
:1008500052EA430619D094EA0C0F02D150EA01364D
:1008600013D195EA0C0F05D152EA03361CBF10468E
:1008700019460AD181EA030101F0004141F0FE412D
:1008800041F470014FF0000070BD41F0FE4141F4B1
:10089000780170BD70B54FF0FF0C4CF4E06C1CEAB1
:1008A00011541DBF1CEA135594EA0C0F95EA0C0F66
:1008B00000F0A7F8A4EB050481EA030E52EA033521
:1008C0004FEA013100F088804FEA03334FF0805542
:1008D00045EA131343EA12634FEA022245EA11156F
:1008E00045EA10654FEA00260EF000419D4208BF20
:1008F000964244F1FD0404F5407402D25B084FEACD
:100900003202B61A65EB03055B084FEA32024FF478
:1009100080104FF4002CB6EB020E75EB030E22BFD5
:10092000B61A754640EA0C005B084FEA3202B6EB95
:10093000020E75EB030E22BFB61A754640EA5C0044
:100940005B084FEA3202B6EB020E75EB030E22BFD4
:10095000B61A754640EA9C005B084FEA3202B6EBD5
:10096000020E75EB030E22BFB61A754640EADC0094
:1009700055EA060E18D04FEA051545EA16754FEAF6
:1009800006164FEAC30343EA52734FEAC2025FEA14
:100990001C1CC0D111F4801F0BD141EA00014FF0A3
:1009A00000004FF0004CB6E711F4801F04BF014374
:1009B0000020B4F1FD0C88BFBCF5E06F3FF6AFAE90
:1009C000B5EB030C04BFB6EB020C5FEA500C50F120
:1009D000000041EB045170BD0EF0004E4EEA1131A3
:1009E00014EB5C04C2BFD4EB0C0541EA045170BDAA
:1009F00041F480114FF0000E013C90E645EA060EEE
:100A00008DE60CEA135594EA0C0F08BF95EA0C0F1B
:100A10003FF43BAF94EA0C0F0AD150EA01347FF463
:100A200034AF95EA0C0F7FF425AF104619462CE73A
:100A300095EA0C0F06D152EA03353FF4FDAE10469D
:100A4000194622E750EA410618BF52EA43067FF4EE
:100A5000C5AE50EA41047FF40DAF52EA43057FF47E
:100A6000EBAE12E74FF0FF3C06E000BF4FF0010C89
:100A700002E000BF4FF0010C4DF804CD4FEA410CED
:100A80007FEA6C5C4FEA430C18BF7FEA6C5C1BD0BA
:100A900001B050EA410C0CBF52EA430C91EA030F3B
:100AA00002BF90EA020F0020704710F1000F91EA98
:100AB000030F58BF994208BF90422CBFD8176FEA66
:100AC000E37040F0010070474FEA410C7FEA6C5C34
:100AD00002D150EA013C07D14FEA430C7FEA6C5C3B
:100AE000D6D152EA033CD3D05DF8040B704700BF67
:100AF0008446104662468C461946634600E000BFB5
:100B000001B5FFF7B7FF002848BF10F1000F01BD86
:100B10004DF808EDFFF7F4FF0CBF012000205DF851
:100B200008FB00BF4DF808EDFFF7EAFF34BF0120D6
:100B300000205DF808FB00BF4DF808EDFFF7E0FF6F
:100B400094BF012000205DF808FB00BF4DF808EDC0
:100B5000FFF7CEFF94BF012000205DF808FB00BF27
:100B60004DF808EDFFF7C4FF34BF012000205DF809
:100B700008FB00BF4FEA410C7FEA6C5C02D150EAEF
:100B8000013C0AD14FEA430C7FEA6C5C02D152EA85
:100B9000033C02D14FF0000070474FF00100704756
:100BA0004FEA410212F5001215D211D56FF4787395
:100BB000B3EB625212D94FEAC12343F0004343EA38
:100BC000505311F0004F23FA02F018BF4042704713
:100BD0004FF00000704750EA013005D111F000409D
:100BE00008BF6FF0004070474FF00000704700BF33
:100BF00080F0004002E000BF81F0004142001FBFD2
:100C00005FEA410392EA030F7FEA226C7FEA236CDA
:100C10006AD04FEA1262D2EB1363C1BFD2184140CF
:100C200048404140B8BF5B42192B88BF704710F065
:100C3000004F40F4000020F07F4018BF404211F008
:100C4000004F41F4000121F07F4118BF494292EA70
:100C5000030F3FD0A2F1010241FA03FC10EB0C009C
:100C6000C3F1200301FA03F100F0004302D5494229
:100C700060EB4000B0F5000F13D3B0F1807F06D3D6
:100C800040084FEA310102F10102FE2A51D2B1F1CE
:100C9000004F40EBC25008BF20F0010040EA0300C3
:100CA0007047490040EB0000013A28BFB0F5000F43
:100CB000EDD2B0FA80FCACF1080CB2EB0C0200FAF9
:100CC0000CF0AABF00EBC25052421843BCBFD04048
:100CD0001843704792F0000F81F4000106BF80F4C2
:100CE00000000132013BB5E74FEA41037FEA226C85
:100CF00018BF7FEA236C21D092EA030F04D092F050
:100D0000000F08BF0846704790EA010F1CBF002083
:100D1000704712F07F4F04D1400028BF40F00040E0
:100D2000704712F100723CBF00F50000704700F000
:100D3000004343F0FE4040F4000070477FEA226227
:100D400016BF08467FEA23630146420206BF5FEAF8
:100D5000412390EA010F40F4800070474FF00003F8
:100D600004E000BF10F0004348BF40425FEA000CBF
:100D700008BF704743F0964301464FF000001CE067
:100D800050EA010208BF70474FF000030AE000BFBD
:100D900050EA010208BF704711F0004302D54042FB
:100DA00061EB41015FEA010C02BF8446014600206D
:100DB00043F0B64308BFA3F18053A3F50003BCFA88
:100DC0008CF2083AA3EBC25310DB01FA02FC634435
:100DD00000FA02FCC2F12002BCF1004F20FA02F23C
:100DE00043EB020008BF20F00100704702F120022F
:100DF00001FA02FCC2F1200250EA4C0021FA02F290
:100E000043EB020008BF20EADC70704738B50E4B98
:100E1000054618784FF47A73B3FBF0F30B4A106869
:100E2000B0FBF3F000F0B0F8044658B90F2D09D824
:100E3000024629464FF0FF3000F04CF82046044BA4
:100E40001D6038BD0120FCE70000002008000020E4
:100E500004000020074A08B51368032043F010037C
:100E6000136000F01BF80020FFF7D0FF01F022FF15
:100E7000002008BD00200240034A044B11681B7883
:100E80000B441360704700BFF801002000000020F1
:100E9000014B1868704700BFF8010020C31E042BE7
:100EA00010B5044603D9A221084801F0F7FE230239
:100EB0004FF6FF04064903F4E063CA681440234375
:100EC00043F0BF6343F40033CB6010BDD05D000836
:100ED00000ED00E00F2A70B505460C46164603D912
:100EE000BA211B4801F0DAFE0F2C03D9BB211848A8
:100EF00001F0D4FE174BD868C0F30220C0F10703FD
:100F0000021D042B28BF0423062A4FF0FF3298BF8E
:100F1000002002FA03F388BF033824EA0303834066
:100F200002FA00F026EA0006002D43EA0603ACBFF1
:100F300005F16045084A4FEA0313DBB2B5BF05F07F
:100F40000F0505F56145535585F8003370BD00BFA9
:100F5000D05D000800ED00E014ED00E010B5041EC7
:100F600003DACE21064801F099FE01206209054B03
:100F700004F01F0400FA04F443F8224010BD00BF3F
:100F8000D05D000800E100E00138B0F1807F0BD2B5
:100F90004FF0E023F021054A586182F82310002029
:100FA000072298611A6170470120704700ED00E048
:100FB0002DE9F04FDFF89492044648450D4685B080
:100FC00012D0A34B98420FD003F5806398420BD008
:100FD00003F58063984207D003F58063984203D0FD
:100FE000CD219C4801F05AFE2B689AB212B11B0C1D
:100FF0001B041BB1CE21974801F050FE6B68032BF8
:1010000017D9A3F11102012A13D9934923F400122D
:101010008A420ED001F580118B420AD0A1F57021D1
:101020008A4206D08D4A934203D0CF21894801F0ED
:1010300035FE0026B046DFF828A2DFF828B20122EC
:10104000296802FA08F232EA010302EA010740F0D5
:1010500094804C4513D07E498C4210D0824B9C42E8
:101060000DD001F500618C4209D001F580618C4200
:1010700005D0DD217748019201F010FE019A6968E0
:10108000032908D80139022900F29180DFE811F024
:10109000A900BE00D400122900F0C38076D811291F
:1010A00000F0A980FF2F98BF22464FEA880198BF21
:1010B00008464FF00F0C84BF221DA1F120001168DB
:1010C0000CFA00FE21EA0E0106FA00F0014311605D
:1010D0006868C30051D5DAF8182028F0030142F0FF
:1010E0000102CAF81820DAF8182001F1804102F054
:1010F0000102039201F5803108F0030E039A4FEAD2
:101100008E0E8A680CFA0EFC4C4522EA0C0C00F09C
:1011100097804F4A944200F09580534B9C4200F0D8
:10112000938002F5006294420CBF0322042202FA6B
:101130000EF242EA0C028A60DBF80020C1034CBFC9
:101140003A43BA43CBF80020DBF8042083034CBFBA
:101150003A43BA43CBF80420DBF80820C1024CBF65
:101160003A43BA43CBF80820DBF80C2083024CBF8B
:10117000174322EA0707CBF80C7008F10108B8F111
:10118000100F7FF45CAF05B0BDE8F08F33488142AB
:101190000DD020D8A0F58010814208D000F5702035
:1011A000814204D0A0F5801081427FF47BAFA96812
:1011B000022906D940F207112648019201F06EFD7E
:1011C000019AA968002939D001294FF008060CBFFF
:1011D0002261626166E725488142E8D000F58030EF
:1011E000E2E7EA68013A022A03D9E521194801F049
:1011F00055FDEE6856E7EA68013A022A03D9EC2168
:10120000144801F04BFDEE6804364BE7EA68013AFA
:10121000022A03D9F3210F4801F040FDEE68083699
:1012200040E7EA68013A022A03D9FA21094801F0A5
:1012300035FDEE680C3635E7002633E7042631E746
:10124000002274E7012272E7022270E700080140E1
:10125000000C01400B5E000800001110000022107D
:101260000010024000040140001001400000311055
:101270002DE9F341044620B94FF4B871824801F0DA
:101280000DFD2368ABB92368190700F1C5802368F9
:101290005A0700F10181E369022B04D940F2B92118
:1012A000794801F0FBFCE269002A40F066810020E9
:1012B00029E01B0704D140F27111734801F0EEFCE4
:1012C0002368DF0730D5636833F4803207D0B3F585
:1012D000A02F04D040F277116B4801F0DFFC6B4D7A
:1012E0006B6803F00C03042B07D06B6803F00C034E
:1012F000082B0BD16B68DE0308D52B689D0313D533
:1013000063688BB9012002B0BDE8F0816368B3F572
:10131000803F37D12B6843F480332B60FFF7B8FD53
:1013200006462B68980351D523689A07ABD52369E5
:10133000012B04D940F2AB11534801F0AFFC6369B3
:101340001F2B04D94FF4D6714F4801F0A7FC4F4D25
:101350006B6813F00C0F07D06B6803F00C03082BBD
:101360003BD16B68DA0338D42B689B0702D523691D
:10137000012BC7D12B68626923F0F80343EAC2034B
:101380002B6080E79BB92B6823F480332B602B689C
:1013900023F480232B60FFF77BFD06462B6899031F
:1013A000C2D5FFF775FD801B6428F7D913E0B3F5AC
:1013B000A02F2B6803D143F480232B60AAE723F4EA
:1013C00080332B602B6823F48023A6E7FFF760FDB2
:1013D000801B6428A5D9032095E722692C4B6AB1AC
:1013E00001221A60FFF754FD06462B689F07C1D4FF
:1013F000FFF74EFD801B0228F7D9ECE71A60FFF7D4
:1014000047FD06462B6898077FF53DAFFFF740FD87
:10141000801B0228F6D9DEE7A369012B04D94FF41B
:10142000F671194801F03AFCA269184E184BE2B166
:101430000122C3F88024FFF72BFD0546736A9B0742
:101440000DD54FF4FA52134B1B68B3FBF2F3019323
:1014500000BF019B5A1E0192002BF9D117E7FFF73D
:1014600017FD401B0228E9D9B5E7C3F88024FFF730
:101470000FFD0546736A9F077FF509AFFFF708FD6B
:10148000401B0228F6D9A6E7445E0008001002407F
:101490000000424208000020E368012B06D9052B1A
:1014A00004D040F21B216E4801F0F8FB6D4DEB6952
:1014B000D80024D40127EB6943F08053EB61EB693A
:1014C00003F080530093009B674E3368D90518D50D
:1014D000E368012B26D12B6A43F001032B62FFF74F
:1014E000D7FC41F2883806462B6A9B073FD5002F70
:1014F0003FF4D1AEEB6923F08053EB61CBE60027DC
:10150000E2E7336843F480733360FFF7C1FC804641
:101510003368DA05DCD4FFF7BBFCA0EB08006428D5
:10152000F6D958E7ABB92B6A41F2883823F00103AA
:101530002B622B6A23F004032B62FFF7A9FC0646FB
:101540002B6A9807D3D5FFF7A3FC801B4045F7D93A
:1015500041E7052B2B6A03D143F004032B62BAE762
:1015600023F001032B622B6A23F00403B6E7FFF795
:101570008FFC801B4045B7D92DE73A4D6B6803F0CF
:101580000C03082B3FF4BEAE022A59D1236A33F470
:10159000803304D040F2C221314801F07FFB636AFE
:1015A00033F4402223F4802110D0B2F5801F0DD0F7
:1015B000B2F5001F0AD0B1F5401F07D0B3F5601F88
:1015C00004D040F2C321264801F068FB0022274BDB
:1015D0001A66FFF75DFC06462B6899012AD4236A38
:1015E000B3F5803F0ED1A36833F4003304D040F24A
:1015F000D9211B4801F052FB6B68A26823F4003329
:1016000013436B606A68D4E9083122F474120B4307
:10161000134301226B60154B1A66FFF739FC044631
:101620002B689A013FF543AEFFF732FC001B0228FE
:10163000F6D9D0E6FFF72CFC801B0228CCD9CAE6ED
:1016400000220A4B1A66FFF723FC04462B689B0115
:101650007FF52DAEFFF71CFC001B0228F6D9BAE679
:10166000445E00080010024000700040000042424A
:1016700070B5064686B00C4615460021102202A819
:1016800001F0A4FC26B14FF47F711B4801F006FB6A
:1016900025B140F2FD31184801F000FB24F0007341
:1016A000B3F1A06F0AD0B4F1C06F07D034F08063FB
:1016B00004D040F2FE31104801F0F0FA0223032179
:1016C00003930023CDE904314FF480730B4D029353
:1016D000AB6902A943F00403AB61AB69084803F0AE
:1016E00004030193019BFFF763FC696821F0E0614B
:1016F0000C436C6006B070BD445E000800100240F0
:101700000008014030B5184B87B002AC03F110055A
:10171000224618685968083303C2AB421446F7D111
:1017200040F201231149ADF804304B6803F00C027C
:10173000082A17D1C3F3834218326A44DB0312F834
:10174000100C0CD54B680A4AC3F34043504318337E
:101750006B4413F8143CB0FBF3F007B030BD054BFD
:101760005843FAE70248F8E77C5E000800100240A0
:1017700000127A0000093D002DE9F0410D460446B3
:1017800020B940F22E317E4801F088FA23681E0706
:1017900004D140F22F317A4801F080FA022D04D9A9
:1017A0004FF44C71764801F079FA764A136803F0E9
:1017B0000703AB423CD32368980746D42368DA0773
:1017C0006FD4704A136803F00703AB4200F2B38092
:1017D00023686D4D13F0040F40F0B98023681B0798
:1017E00017D5236933F480620CD023F40072B2F56C
:1017F000A06F07D0B3F5C06F04D04FF46E7160488E
:1018000001F04CFA6B68226923F4605343EAC20387
:101810006B60FFF777FF6B685C4AC3F30313D35C1D
:10182000D8405B4B18600020FFF7F0FA00200AE078
:10183000136823F007032B431360136803F00703B7
:10184000AB42B8D00120BDE8F0814F4E13F0040F39
:101850001EBF726842F4E0627260190742BF73688B
:1018600043F460537360A36833F0800212D023F016
:101870002002902A0ED023F04002A02A0AD023F0A2
:101880001002C02A06D0F02B04D040F256313C485A
:1018900001F004FA7368A26823F0F0031343736045
:1018A0008CE76368022B04D940F25D31344801F0C3
:1018B000F5F96268344E012A33681CD113F4003FF5
:1018C000C0D0736841F2883823F003031343736078
:1018D000FFF7DEFA63680746012B14D1736803F043
:1018E0000C03042B3FF46DAFFFF7D2FAC01B404549
:1018F000F4D90320A7E7022A02D113F0007FDFE723
:1019000013F0020FDCE7022B10D1736803F00C0315
:10191000082B3FF456AFFFF7BBFAC01B4045F4D984
:10192000E7E7FFF7B5FAC01B4045E2D8736813F04C
:101930000C0FF6D145E7136823F007032B43136020
:10194000136803F00703AB427FF47CAF40E7E36822
:1019500033F480620CD023F40072B2F5A06F07D08C
:10196000B3F5C06F04D040F2B131054801F096F9EB
:101970006B68E26823F4E06313436B602EE700BFFB
:10198000445E000800200240001002406C5F000826
:1019900008000020044B054A5B68C3F30223D35CB4
:1019A000034A1068D8407047001002407C5F00086E
:1019B00008000020044B054A5B68C3F3C223D35CD4
:1019C000034A1068D8407047001002407C5F00084E
:1019D0000800002038B50C4603686268996805461F
:1019E00021F070012068114321F007010143402AD2
:1019F000996000F09F801DD8202A00F0308106D821
:101A0000002A00F0FE80102A00F0148138BD302A30
:101A1000FCD19D4A9342F9D0B3F1804FF6D0A2F5A4
:101A200094329342F2D002F580629342EED041F2BA
:101A3000AF31FAE0602A00F0A780702A3BD0502A2C
:101A4000E4D1914A93420FD0B3F1804F0CD0A2F56C
:101A50009432934208D002F58062934204D041F25E
:101A60007E318A4801F01AF9A368B3F5004F09D016
:101A700033F0020206D00A2B04D041F27F318348B2
:101A800001F00CF923690F2B04D94FF49C517F48C6
:101A900001F004F92B68A168186A25691C6A20F016
:101AA0000A0024F001041C629A69014322F0F0024A
:101AB00042EA051265E0744A93420FD0B3F1804FB9
:101AC0000CD0A2F59432934208D002F58062934282
:101AD00004D041F259316D4801F0E0F8E36833F485
:101AE000405304D041F25A31684801F0D7F8A36856
:101AF000B3F5004F09D033F0020206D00A2B04D010
:101B000041F25B31614801F0C9F823690F2B04D918
:101B100041F25C315D4801F0C1F8D4E90203296863
:101B200003438A68206922F47F4243EA0023134377
:101B30008B606BE7544A93420FD0B3F1804F0CD0C7
:101B4000A2F59432934208D002F58062934204D009
:101B500041F268314D4801F0A1F823690F2B04D9F7
:101B600041F26931494801F099F82B682069196AF6
:101B70001A6A22F001021A629A6922F0F00242EA1D
:101B800000129A61196241E73F4A93420FD0B3F1C4
:101B9000804F0CD0A2F59432934208D002F58062B7
:101BA000934204D041F28C31384801F077F8A368B1
:101BB000B3F5004F09D033F0020206D00A2B04D04F
:101BC00041F28D31314801F069F823690F2B04D9B6
:101BD00041F28E312D4801F061F82B68A568186A32
:101BE000246920F01000186299691A6A21F4704182
:101BF00022F0A00241EA043142EA051299611A6218
:101C000004E7214A93423FF401AFB3F1804F3FF420
:101C1000FDAEA2F5943293423FF4F8AE02F5806235
:101C200093423FF4F3AE41F29A31BDE83840174891
:101C300001F034B8144A93423FF4E8AEB3F1804F58
:101C40003FF4E4AEA2F5943293423FF4DFAE02F5E6
:101C5000806293423FF4DAAE41F2A131E5E70A4AED
:101C600093423FF4D3AEB3F1804F3FF4CFAEA2F531
:101C7000943293423FF4CAAE02F5806293423FF43D
:101C8000C5AE41F2A831D0E7002C01408D5E0008BE
:101C90000368114A10B5934204460FD0B3F1804F48
:101CA0000CD0A2F59432934208D002F580629342A0
:101CB00004D040F23311094800F0F0FF02232268FB
:101CC00084F83D301368002043F0010313600123C2
:101CD00084F83D3010BD00BF002C01408D5E00082F
:101CE0000368104A10B5934204460FD0B3F1804FF9
:101CF0000CD0A2F59432934208D002F58062934250
:101D000004D040F26111084800F0C8FF23680020A9
:101D1000DA6842F00102DA601A6842F001021A60E1
:101D200010BD00BF002C01408D5E00087047000010
:101D300070B590F83C300546012B0C464FF0020080
:101D400031D0012385F83D0085F83C300B68B3F5B0
:101D5000805F0CD0B3F5005F09D033F0300306D0BC
:101D6000402B04D040F67171A94800F097FF2B6812
:101D70009A6822F47F4222F077029A602268502A01
:101D800000F0038156D8202A00F0BC810CD8002A2C
:101D900000F08481102A00F09B810123002085F847
:101DA0003D3085F83C0070BD302A00F0C581402AE6
:101DB000F3D1984A93420FD0B3F1804F0CD0A2F5E3
:101DC0009432934208D002F58062934204D040F6E8
:101DD000D2718F4800F062FF6368B3F5004F09D0FD
:101DE00033F0020206D00A2B04D040F6D5718848A1
:101DF00000F054FFE3680F2B04D940F6D6718448F5
:101E000000F04CFF2B686168186AE6681C6A20F0D5
:101E10000A0024F001041C629A69014322F0F002D6
:101E200042EA06129A6119629A6822F0700242F040
:101E30004702EAE0B2F5805F00F08E8046D8602A63
:101E400000F0EA80702AA8D1724A93420FD0B3F111
:101E5000804F0CD0A2F59432934208D002F58062F4
:101E6000934204D040F68671694800F017FFA368DA
:101E700033F4405304D040F68971654800F00EFFFA
:101E80006368B3F5004F09D033F0020206D00A2B85
:101E900004D040F68A715E4800F000FFE3680F2B23
:101EA00004D940F68B715A4800F0F8FED4E90103DA
:101EB0002A6803439168E06821F47F4143EA0023E4
:101EC0000B439360936843F077035CE0B2F5005FE7
:101ED0007FF463AF4F4A93420FD0B3F1804F0CD0E1
:101EE000A2F59432934208D002F58062934204D066
:101EF0004FF47A61464800F0D1FEA36833F44053B2
:101F000004D040F6A371424800F0C8FE6368B3F500
:101F1000004F09D033F0020206D00A2B04D040F65D
:101F2000A4713B4800F0BAFEE3680F2B04D940F6D9
:101F3000A571374800F0B2FED4E901032A680343D3
:101F40009168E06821F47F4143EA00230B439360EA
:101F5000936843F4804316E02E4A93420FD0B3F1C6
:101F6000804F0CD0A2F59432934208D002F58062E3
:101F7000934204D040F67D71254800F08FFE2A6818
:101F8000936823F00703936007E7224A93420FD038
:101F9000B3F1804F0CD0A2F59432934208D002F5F1
:101FA0008062934204D040F6B471194800F076FE86
:101FB0006368B3F5004F09D033F0020206D00A2B54
:101FC00004D040F6B771124800F068FEE3680F2BAA
:101FD00004D940F6B8710E4800F060FE2B686168C5
:101FE000186AE6681C6A20F00A0024F001041C62EA
:101FF0009A69014322F0F00242EA06129A611962DC
:102000009A6822F0700242F057029A60C5E600BF5B
:102010008D5E0008002C0140544A93420FD0B3F16A
:10202000804F0CD0A2F59432934208D002F5806222
:10203000934204D040F6C3714D4800F02FFE636810
:10204000B3F5004F09D033F0020206D00A2B04D0BA
:1020500040F6C671464800F021FEE3680F2B04D914
:1020600040F6C771424800F019FE2B686668186A8E
:10207000E46820F01000186299691A6A21F470412E
:1020800022F0A00242EA061241EA043199611A6282
:102090009A6822F0700242F06702B6E7334A934230
:1020A0000FD0B3F1804F0CD0A2F59432934208D0F8
:1020B00002F58062934204D040F6E1712C4800F0B2
:1020C000EDFD2A68936823F0700343F007035AE795
:1020D000264A93420FD0B3F1804F0CD0A2F5943230
:1020E000934208D002F58062934204D040F6E97131
:1020F0001F4800F0D3FD2A68936823F0700343F073
:10210000170340E7194A93420FD0B3F1804F0CD028
:10211000A2F59432934208D002F58062934204D033
:1021200040F6F171124800F0B9FD2A68936823F077
:10213000700343F0270326E70C4A93420FD0B3F114
:10214000804F0CD0A2F59432934208D002F5806201
:10215000934204D040F6F971054800F09FFD2A68CB
:10216000936823F0700343F037030CE7002C014021
:102170008D5E00080368244A70B5934204460D46FC
:102180000FD0B3F1804F0CD0A2F59432934208D017
:1021900002F58062934204D041F238011B4800F0FE
:1021A0007DFD2B683BB1043B032B04D941F239017F
:1021B000164800F073FD6B6833F0300306D0402BF7
:1021C00004D041F23A01114800F068FD94F83C3027
:1021D0000220012B16D0012684F83D002946204616
:1021E00084F83C60FFF7F6FB00202368DA6822F0F1
:1021F0004002DA60DA6822F48042DA6084F83D60F6
:1022000084F83C0070BD00BF002C01408D5E0008CA
:102210007047704770477047036810B51A690446E5
:1022200091070ED5DA6892070BD56FF002021A619A
:10223000012202779B699B0777D0FFF7EAFF002313
:10224000237723681A69500710D5DA6851070DD52E
:102250006FF004021A61022222779B69204613F470
:10226000407F68D0FFF7D5FF0023237723681A69E2
:1022700012070FD5DA6810070CD56FF008021A6143
:1022800004222277DB69204699075AD0FFF7C1FF65
:102290000023237723681A69D20610D5DA68D0069E
:1022A0000DD56FF010021A6108222277DB692046F3
:1022B00013F4407F4BD0FFF7ACFF00232377236854
:1022C0001A69D10708D5DA68D20705D56FF001027F
:1022D00020461A6100F040FB23681A69100608D5F1
:1022E000DA68110605D56FF0800220461A6100F009
:1022F0007AF923681A69520608D5DA68500605D5B6
:102300006FF0400220461A61FFF785FF23681A69C3
:10231000910622D5DA6892061FD56FF0200220467A
:10232000BDE810401A6100F05DB9FFF771FF20466B
:10233000FFF770FF83E7FFF76BFF2046FFF76AFFA9
:1023400092E7FFF765FF2046FFF764FFA0E7FFF77E
:102350005FFF2046FFF75EFFAFE710BD1A4A036834
:1023600090420AD0B0F1804F07D0A2F5943290424B
:1023700003D002F58062904215D14A6823F07003C1
:102380001343114A90420AD0B0F1804F07D0A2F512
:102390009432904203D002F58062904203D1CA6821
:1023A00023F4407313434A6923F08003134303600B
:1023B0008B68C3620B688362034B984204BF0B694E
:1023C0000363012343617047002C014010B50446AC
:1023D000002849D00368254A93420ED0B3F1804FBC
:1023E0000BD0A2F59432934207D002F5806293425B
:1023F00003D0D9211E4800F051FCA36833F010022D
:1024000009D023F04002202A05D0402B03D0DA2146
:10241000174800F043FC236933F4807206D0B3F50B
:10242000007F03D0DB21124800F038FCA36933F0B1
:10243000800303D0DC210E4800F030FC94F83D30DE
:1024400003F0FF0223B9204684F83C2000F054FC3E
:102450000223206884F83D30211DFFF77FFF012310
:10246000002084F83D3010BD0120FCE7002C014025
:102470008D5E000838B50D46044600285DD003681F
:102480002F4A93420FD0B3F1804F0CD0A2F5943273
:10249000934208D002F58062934204D040F2CC719E
:1024A000284800F0FBFBA36833F010020AD023F0A9
:1024B0004002202A06D0402B04D040F2CD712148A2
:1024C00000F0ECFB236933F4807207D0B3F5007F92
:1024D00004D040F2CE711B4800F0E0FBA36933F05A
:1024E000800304D040F2CF71164800F0D7FB35F0DE
:1024F000080304D04FF4FA61124800F0CFFB94F8BF
:102500003D3003F0FF0223B9204684F83C20FFF75A
:102510000DFC0223206884F83D30211DFFF71EFFCB
:10252000236800201A6822F008021A6019680D4317
:102530001D60012384F83D3038BD0120FCE700BF59
:10254000002C01408D5E000838B5244A036804461B
:1025500093420D460FD0B3F1804F0CD0A2F59432C8
:10256000934208D002F58062934204D04FF4C761D1
:102570001B4800F093FB2B6833F0300306D0402B50
:1025800004D040F23961164800F088FB6B6833F0E4
:10259000800304D040F23A61114800F07FFB94F8C8
:1025A0003C300220012B18D0236884F83D005A6883
:1025B000296822F070025A605A6800200A435A6063
:1025C0009A68696822F080029A609A680A439A6061
:1025D000012384F83C0084F83D3038BD002C0140D4
:1025E000C55E0008704770472DE9F8434268604BAC
:1025F00004469A4204D940F6A7115E4800F04EFB0B
:10260000E36833F4005304D040F6A811594800F0B1
:1026100045FB236933F4806207D0B3F5C06F04D063
:1026200040F6A911534800F039FB4FF6F372636985
:10263000134200D123B940F6AA114E4800F02EFBF8
:102640002368E1681A69206922F440520A431A613A
:10265000A268D9680243606921F4B05121F00C01ED
:1026600002430A43DA605A69A16922F440720A43BC
:102670005A61414A4FF01908934247D1FFF79AF93E
:1026800008FB00F367684FF06409BF00B3FBF7F382
:10269000B3FBF9F31F01FFF78DF908FB00F0656844
:1026A000AD00B0FBF5F5FFF785F908FB00F36268B4
:1026B0009200B3FBF2F3B3FBF9F309FB13531B01D5
:1026C0003233B3FBF9F303F0F006FFF773F908FBBD
:1026D00000F563689B00B5FBF3F5FFF76BF908FBAA
:1026E00000F3606822684FEA8008B3FBF8F3B3FB9D
:1026F000F9F309FB13531B013233B3FBF9F303F076
:102700000F0333433B449360BDE8F883FFF742F97E
:1027100008FB00F367684FF06409BF00B3FBF7F3F1
:10272000B3FBF9F31F01FFF735F908FB00F065680B
:10273000AD00B0FBF5F5FFF72DF908FB00F362687B
:102740009200B3FBF2F3B3FBF9F309FB13531B0144
:102750003233B3FBF9F303F0F006FFF71BF908FB84
:1027600000F563689B00B5FBF3F5FFF713F9B6E7D7
:1027700020AA4400005F000800380140F8B5044674
:102780000E4617461D462268136836EA030301D138
:10279000002014E06B1CF7D095B923680320DA6899
:1027A00022F4D072DA605A6922F001025A612023C1
:1027B00084F8393084F83A30002384F83830F8BD92
:1027C000FEF766FBC01B8542DDD2E6E710B5044686
:1027D00000285BD0816903682D4A00294AD09342C2
:1027E0000CD0A2F57442934208D002F58062934265
:1027F00004D040F20F11274800F050FAA36933F4D7
:10280000407304D04FF48871224800F047FAA3685F
:1028100033F4805304D04FF48B711E4800F03EFA1D
:1028200094F8393003F0FF0223B9204684F83820A9
:1028300000F0B8FA2423226884F83930D36820469F
:1028400023F40053D360FFF7CFFE236800201A69FA
:1028500022F490421A615A6922F02A025A61DA6817
:1028600042F40052DA602023E06384F8393084F8BF
:102870003A3010BD9342CAD0074A9342C7D002F5FE
:1028800080629342C3D04FF48A71BDE70120F0E724
:1028900000380140005F0008004400402DE9F0418D
:1028A0001F4690F839300446202B0D4690464ED1F5
:1028B00000294AD0002A48D090F83830012B46D061
:1028C000012380F838300023C363212380F8393096
:1028D000FEF7DEFA0646A4F82480A4F82680E38CEE
:1028E0009BB263B93B46324640212046FFF746FF84
:1028F000A0B9202384F8380084F839300FE0E38C45
:102900003246013B9BB2E384A3688021B3F5805F2C
:1029100020463B4610D1FFF731FF10B10320BDE840
:10292000F0812B882268C3F30803536023690BB935
:102930000235D4E70135D2E7FFF720FF0028EDD1BB
:10294000236815F8012B5A60C9E70120E7E7022048
:10295000E5E7000000000000F0B51F4B0446984278
:102960009BB033D14FF0804300255E6AD3F82474C6
:102970005C22294603A8029500F028FB06EB0740DD
:10298000FEF7ECF91549FDF7EBFBFDF701FE10A38F
:10299000D3E90023FDF77EFF114ACDE90001602154
:1029A00002A800F07BFF02A8FDF7D2FB4FF47A7378
:1029B00082B202A90B48FFF771FF0B4B20461B6840
:1029C0005D620A4B1B685D62FFF78AF91BB0F0BDC0
:1029D000000000205FA002420C020020F902155006
:1029E000395F0008CC0200204C0200208C0200203D
:1029F0004FF47A73062202490248FFF74FBF00BF27
:102A00005D5F0008CC02002010B590B014220021B8
:102A100008A800F0DBFA1422002101A800F0D6FA81
:102A200002244FF480330122CDE90D43CDE9062382
:102A30004FF4E01306A80A920F93FEF719FC08B1B1
:102A4000FFF7D6FF0F234FF48062CDE90134002356
:102A5000022101A8CDE903320593FEF78DFE08B1EE
:102A6000FFF7C6FF00224FF0C0611046FEF700FEE0
:102A700010B010BD002400B58FB0FEF7EBF9FFF7E2
:102A8000C3FF7B4B0B949A694FF4807542F0200290
:102A90009A619A69774802F020020092009A9A6936
:102AA00009A942F004029A619A6902F004020192B3
:102AB000019A9A6942F008029A619B6903F008033F
:102AC0000293029B0223CDE9095303230C93FEF7E3
:102AD0006FFA4FF40073684809A9CDE909340B94E3
:102AE000FEF766FA4FF4E1336448DFF894C1C0E9B9
:102AF0000244C0E900C30C230461C0E90534C46189
:102B0000FFF764FE08B1FFF773FF1422002109A844
:102B100000F05CFA00235B485B4A05ACC0E9002387
:102B20004FF6FF7205936360C0E9032383608361FE
:102B3000FFF74CFC08B1FFF75BFF0720102309A942
:102B4000CDE909034F48FFF715FB08B1FFF750FF28
:102B5000002321464B48CDE90533FFF7F5FC08B1CA
:102B6000FFF746FF102500212A4609A800F02EFA9B
:102B700041F61F42454846490023C0E9001242F28F
:102B80000F7205936360C0E90323C0E905338560D4
:102B9000FFF71CFC08B1FFF72BFF4FF480533B48B5
:102BA00009A90993FFF7C4F808B1FFF721FF08212D
:102BB0003648FFF75FFC08B1FFF71AFF10228023A9
:102BC00021463248CDE90523FFF7BEFC08B1FFF7E7
:102BD0000FFF10220021204600F0F8F914220021F6
:102BE00009A800F0F3F900254FF080432948CDE90A
:102BF0000355C0E900354FF6FF738560C0E9033522
:102C00008561FFF7E3FB08B1FFF7F2FE4FF40053D5
:102C100021462048CDE90535CDE90755FFF788F86D
:102C200008B1FFF7E5FE052300251A4809A9CDE9FB
:102C30000935FFF79FFA08B1FFF7DAFE20231548A0
:102C400003A9CDE90335FFF77FFC08B1FFF7D0FEFC
:102C500094E80F00104D85E80F000C48FFF740F88E
:102C60000C48FFF715F80748FFF712F8FEE700BF1A
:102C70000010024000080140000C0140CC0200207E
:102C8000003801408C020020000400400C020020AB
:102C9000002C01404C020020FC0100204FF47A730C
:102CA000062202490248FFF7F9BD00BF655F000830
:102CB000CC0200200E4B82B09A6942F001029A6168
:102CC0009A6902F001020092009ADA6942F0805299
:102CD000DA61DB69074A03F080530193019B536873
:102CE00023F0E06343F00073536002B0704700BF0D
:102CF0000010024000000140102210B5044688B0C8
:102D00000DEB0200002100F061F92368214A934293
:102D100013D1214B19209A6942F400629A61002272
:102D20009B69114603F400630093009BFEF7D2F801
:102D30001920FEF713F908B010BDB3F1804F1AD176
:102D400003F50433DA69154842F00102DA61DA6901
:102D500004A902F001020192019A9A6942F0040268
:102D60009A619B6903F004030293029B012304937D
:102D7000FEF71EF9DFE70A4A9342DCD1064BDA6917
:102D800042F00202DA61DB6903F002030393039B62
:102D9000D1E700BF002C01400010024000080140B4
:102DA0000004004010B5044686B01022002102A89D
:102DB00000F00CF92268174B9A4228D103F55843CA
:102DC0009A69154842F480429A619A6902A902F40C
:102DD00080420092009A9A6942F004029A619B69CB
:102DE0004FF4007203F004030193019B0223CDE929
:102DF000022303230593FEF7DBF84FF480610023E1
:102E00000548CDE9021302A90493FEF7D1F806B0F4
:102E100010BD00BF00380140000801407047FEE7C8
:102E2000FEE7FEE7FEE7704770477047FEF724B8FD
:102E30000148FFF7F1B900BF0C02002001207047E4
:102E400008B500F099F8162303604FF0FF3008BD75
:102E500008B500F091F816230360FEE770B50D4643
:102E600014460E46731B9C4201DC204670BDAFF336
:102E7000008006F8010BF5E770B50D4614460E46C6
:102E8000731B9C4201DC204670BD16F8010BAFF3AA
:102E90000080F5E70A4A08B51168034609B90949EF
:102EA00011606946106803448B4206D900F064F84B
:102EB0000C2303604FF0FF3008BD1360FCE700BF38
:102EC0000C030020200300204FF0FF3070474FF428
:102ED000005300204B60704701207047002070476E
:102EE0000F4B1A6842F001021A6059680D4A0A40F5
:102EF0005A601A6822F0847222F480321A601A68CA
:102F000022F480221A605A6822F4FE025A604FF4BA
:102F10001F029A604FF00062034B9A60704700BF37
:102F2000001002400000FFF800ED00E0002103E087
:102F30000B4B5B58435004310A480B4B42189A42E2
:102F4000F6D30A4A02E0002342F8043B084B9A42B7
:102F5000F9D3FFF7C5FF00F015F8FFF78BFD7047B9
:102F60006463000800000020DC010020DC01002078
:102F700020030020FEE70000014B1868704700BFE7
:102F80000C00002070B500260C4D0D4C641BA410E5
:102F9000A64209D102F010FF00260A4D0A4C641B1C
:102FA000A410A64205D170BD55F8043B98470136E0
:102FB000EEE755F8043B98470136F2E75C630008FA
:102FC0005C6300085C630008606300080346024419
:102FD000934200D1704703F8011BF9E7002B2DE95C
:102FE000F0471F46BBBF03F100431F4600232D23BC
:102FF00088B01446129A109D1370149BDDF84CA0F3
:1030000023F02008B8F1460F05D0B8F1450F00D1E4
:103010000135022300E0032307AA049206AACDE9A2
:1030200002A2CDE9003522463B4600F0F9FCB8F19A
:10303000470F064602D1119BDB0722D5B8F1460F98
:1030400006EB050910D13378302B0AD1002200237A
:1030500020463946FDF75CFD18B9C5F10105CAF8EF
:103060000050DAF800309944002200232046394607
:10307000FDF74EFD08B1CDF81C903022079B4B4563
:1030800007D33046079B159A9B1B136008B0BDE819
:10309000F087591C07911A70F0E70346F7B500292D
:1030A00003F8022BB6BF2D222B2249420929427078
:1030B0002BDD0DF10704A4460A2791FBF7F60A461B
:1030C000A64607FB1615632A05F13005314604F1C3
:1030D000FF340EF8015CF0DC3031AEF1020504F88B
:1030E000011C2946441C61450AD30DF10902A2EBDB
:1030F0000E02654588BF00221344181A03B0F0BDC4
:1031000011F8012B04F8012FEDE7302330318370E3
:10311000C170031DF1E700002DE9F04F91B00C469E
:10312000DDF8688016461F46054601F067FA036819
:1031300018460993FDF70CF800230E93D8F80030D9
:103140000A90073323F0070303F1080294F818905C
:10315000D4F800B0C8F80020D3E90023C4E9122352
:10316000D4E9128A2AF000430B934FF0FF32404615
:103170009C4B0B99FDF7FEFC70BB4FF0FF324046B5
:10318000984B0B99FDF7D8FC30BB0022002340463A
:103190005146FDF7C7FC10B12D2384F84330924B04
:1031A0009248B9F1470F94BF9846804603234FF0E9
:1031B000000A23612BF0040323603346214628468E
:1031C00000970FAA00F0D4F9013040F090804FF042
:1031D000FF3011B0BDE8F08F42465346404651469D
:1031E000FDF7C8FC48B1BAF1000FB8BF2D238048E5
:1031F000B8BF84F843307F4BD3E7636809F0DF0141
:103200005A1C42D106236360002206920EAACDE921
:1032100004920DAA4BF4806303920DF13302CDE9C1
:1032200001322360636842460093284653460B915F
:10323000FFF7D4FE0B99804647290D9908D1C81C89
:1032400002DB6368994240DDA9F102095FFA89F95E
:10325000B9F1650F1FD84A46013904F150000D91AC
:10326000FFF71BFF0E9A82461318012A236102DC26
:103270002268D20701D5013323619DF83330002B3A
:103280009BD02D2384F8433097E74729BCD1002BEE
:10329000BAD10123B7E7B9F1660F18D100296368E5
:1032A0000BDD216113B92268D00702D501330B442D
:1032B00023614FF0000AA165DFE713B92268D20746
:1032C00001D50233F4E70123F2E74FF067090E9BC3
:1032D000994205DB23682161D807EAD54B1CE7E753
:1032E0000029CCBF0122C1F102021344E0E72368A8
:1032F0005A0507D42369424631462846B84701306B
:103300002BD164E7B9F1650F40F2DD80D4E91201F9
:1033100000220023FDF7FCFB002833D001233146B7
:103320002846354AB84701303FF451AFDDE90D2357
:103330009A4202DB2368D8070FD5DDE9092331461D
:103340002846B84701303FF442AF4FF0000804F17F
:103350001A090E9B013B434509DC23689B0700F1DA
:103360000281E0680F9B9842B8BF184631E70123FD
:103370004A4631462846B84701303FF428AF08F1A5
:103380000108E6E70D9B002B38DC01233146284677
:10339000194AB84701303FF41AAFDDE90D23134352
:1033A00002D12368D907D8D5DDE90923314628465B
:1033B000B84701303FF40BAF4FF0000904F11A0A8F
:1033C0000D9B5B424B4501DC0E9B94E7012352466B
:1033D00031462846B84701303FF4F9AE09F10109FA
:1033E000EEE700BFFFFFEF7F885F00088C5F0008FB
:1033F000945F0008905F0008985F00080E9AA36D24
:103400009A42A8BF1A46002A914637DC4FF0000BBB
:1034100029EAE97904F11A02D4F858A0AAEB0903C1
:103420005B4533DCDDE90D239A423BDB2368DA0799
:1034300038D40E9B0D99A3EB0A02A3EB0109914529
:10344000A8BF9146B9F1000F34DC4FF0000829EA1B
:10345000E97904F11A0ADDE90D239B1AA3EB0903AC
:1034600043457FF77AAF0123524631462846B84795
:1034700001303FF4ACAE08F10108ECE713463146E9
:1034800042462846B8470130C0D1A0E60123314664
:1034900028460B92B84701303FF499AE0B9A0BF1D6
:1034A000010BB9E73146DDE909232846B847013069
:1034B000BFD18CE64B463146284608EB0A02B84796
:1034C0000130C2D183E60E9A012A01DCDB0737D531
:1034D0000123424631462846B84701303FF477AED3
:1034E000DDE9092331462846B84701303FF46FAE85
:1034F000D4E9120100220023FDF70AFBD8B90E9B84
:1035000008F10102013B31462846B84701300ED18F
:103510005DE601234A4631462846B84701303FF46C
:1035200056AE08F101080E9B013B4345F1DC5346C2
:1035300004F15002E0E64FF0000804F11A09F2E746
:1035400001234246DFE701234A4631462846B84771
:1035500001303FF43CAE08F10108E3680F995B1AB3
:103560004345F0DCFDE64FF0000804F11909F4E7EB
:103570002DE9F047164699468A680B69074693423B
:10358000B8BF1346336091F843200C46DDF8208025
:103590000AB1013333602368990642BF33680233AE
:1035A0003360256815F0060506D104F1190AE368B1
:1035B00032689B1AAB4228DC94F84320131E226821
:1035C00018BF012392062DD44946384604F1430220
:1035D000C047013020D02368E56803F00603042BC0
:1035E00018BF002532684FF00006A36808BFAD1A67
:1035F000226908BF25EAE5759342C4BF9B1AED18FE
:103600001A34B5421AD1002008E001235246494637
:103610003846C047013003D14FF0FF30BDE8F08796
:103620000135C4E73020E11881F843005A1C94F8B2
:1036300045102244023382F84310C5E70123224695
:1036400049463846C0470130E6D00136D9E7000088
:103650002DE9FF470F7E9146782F80460C469A460B
:103660000C9D01F1430207D8622F0AD8002F00F009
:10367000D980582F00F0A48004F1420584F84270EC
:103680003AE0A7F16303152BF6D801A151F823F016
:10369000E9360008FD36000879360008793600085A
:1036A0007936000879360008FD36000879360008BA
:1036B0007936000879360008793600080B3800089A
:1036C0002D370008ED3700087936000879360008F4
:1036D0002D380008793600082D37000879360008A3
:1036E00079360008F53700082B681A1D1B682A6018
:1036F00004F1420584F842300123A4E020682968DF
:10370000060601F104030AD50E682B60002E03DAC9
:103710002D23764284F843300A235E4819E00E6870
:1037200010F0400F2B6018BF36B2EFE72B6820680F
:10373000191D2960010601D51E6802E04606FBD569
:103740001E886F2F0CBF08230A235248002184F8DB
:1037500043106568002DA8BF2168A560A4BF21F0B3
:10376000040121600EB9002D4DD01546B6FBF3F1D2
:1037700003FB1167C75D05F8017D3746BB420E4666
:10378000F4D9082B0BD12368DE0708D523696168BB
:103790009942DEBF302305F8013C05F1FF35521B8D
:1037A00022614B4621464046CDF800A003AAFFF710
:1037B000DFFE01304CD14FF0FF3004B0BDE8F087A0
:1037C000344881F845702968236851F8046B2960F2
:1037D0001D0614D5DF0744BF43F0200323601EB944
:1037E000236823F0200323601023AFE7236843F00E
:1037F000200323607823284884F84530E3E75906FE
:1038000048BFB6B2E6E71546BBE72B682668181D29
:103810006169286035061B6801D5196002E07006F1
:10382000FBD51980002315462361BAE72B680021D8
:103830001A1D2A601D686268284600F0EBFE08B178
:10384000401B606063682361002384F84330A8E76D
:103850002A46494640462369D0470130ABD0236809
:103860009B0713D4E068039B9842B8BF1846A4E7AF
:103870000123324649464046D04701309BD00135AE
:10388000E36803995B1AAB42F2DCEBE7002504F135
:103890001906F5E79A5F0008AB5F00080CB430B575
:1038A000174B0C1E1D689DB008DA8B234FF0FF30BC
:1038B0002B601DB0BDE8304002B070474FF402737A
:1038C000ADF814300CBF234604F1FF330493079383
:1038D0004FF6FF7302900690ADF81630284621ABE4
:1038E000209A02A9019301F07FFB431CBCBF8B23EC
:1038F0002B60002CDDD00022029B1A70D9E700BF9C
:103900000C0000202DE9F74F03690C690746A3421C
:10391000C0F28280013C00F1140501F1140805EBAE
:103920008403019358F8243055F8242001339A4237
:10393000B2FBF3F64FEA840B08EB840931D34FF066
:10394000000E4046AC46F24650F8042B93B206FBFC
:1039500003E3120C4FEA134E9BB206FB02E2AAEB02
:103960000303DCF800A04FEA124E1FFA8AFA534410
:10397000DCF800A092B2C2EB1A4202EB23429BB2E7
:1039800043EA024381454FEA224A4CF8043BDBD22A
:1039900055F80B302BB9019B043B9D421A462FD39F
:1039A0003C61384601F0D0F8002825DB28464FF06E
:1039B000000C013658F8041BD0F800E08BB2ACEBD9
:1039C00003031FFA8EF213440A0CC2EB1E4202EBF1
:1039D00023429BB243EA0243C1454FEA224C40F8DE
:1039E000043BE7D255F8242005EB840322B9043BBD
:1039F0009D421A460AD33C61304603B0BDE8F08FC1
:103A00001268043B002ACBD1013CC6E71268043B94
:103A1000002AF0D1013CEBE70020EEE700000000B7
:103A20002DE9F04F16461F46446A99B00546CDE988
:103A30000467DDF8948074B9102000F0E3FD0246BD
:103A4000686220B9EA21A84BA84801F0DDFBC0E973
:103A500001440460C4606B6A196851B15A6801235B
:103A600093404A608B60284600F030FE00226B6A6B
:103A70001A603B1EAFBF0023012223F000430593D1
:103A8000A8BFC8F80030DDF81490994BB8BFC8F84B
:103A9000002033EA090319D142F20F73249A13600C
:103AA000C9F31303334300F07F85269B53B9914B31
:103AB00022E0914B03930833269A1360039819B0C0
:103AC000BDE8F08F8B4B03930333F5E7DDE9043456
:103AD000CDE90C34DDE90C0100220023FDF718F8D4
:103AE000804658B10123249A1360269B002B00F0D6
:103AF000588582481860431E0393DFE716AB019395
:103B000017AB00932846DDE90C2301F0C5F8C9F393
:103B10000A548346002C7FD0DDE90C010D9BA4F2F2
:103B2000FF34C3F3130343F07F5141F44011CDF848
:103B30004C800022724BFCF7CBFB65A3D3E900233A
:103B4000FCF77EFD64A3D3E90023FCF7C3FB064624
:103B500020460F46FCF70AFD61A3D3E90023FCF7DA
:103B60006FFD02460B4630463946FCF7B3FB06466E
:103B70000F46FDF715F800228246002330463946ED
:103B8000FCF7D0FF48B15046FCF7F0FC32463B460C
:103B9000FCF7BEFF08B90AF1FF3ABAF1160F58D880
:103BA000DDE90C01574B03EBCA03D3E90023FCF713
:103BB000B9FF00284FD000230AF1FF3A0F93169B5C
:103BC0001C1B631E099349BFC4F101030023069324
:103BD000002354BF06930993BAF1000F3DDB099B04
:103BE000CDF838A05344099300230A93229B092B54
:103BF00000F28C80052BC4BF043B2293229BC8BFDC
:103C00000024A3F10203D8BF0124032B00F28A8011
:103C1000DFE803F02D4F4D5BDDE916431C4404F251
:103C20003243202BC3BFC3F1400304F2124009FA10
:103C300003F3C3F12003C6BF26FA00F0184306FAC7
:103C400003F0FCF783FC0123A1F1F871013C13930D
:103C50006FE70123B2E70F90B1E7069BA3EB0A03DE
:103C60000693CAF100030A9300230E93BEE70023D4
:103C70000B93239B002B58DC4FF001094B46CDF8EA
:103C80002090CDF88C900022686A4260042202F1F4
:103C900014069E4241684ED9284600F0D7FC039096
:103CA00000284CD102464FF4D571174BCCE60123C6
:103CB000DEE700230B93239B0AEB030909F10103C1
:103CC000012B0893B8BF0123DDE70123F2E700BF12
:103CD00061436F63A787D23FB3C8608B288AC63F12
:103CE000FB799F501344D33FC95F0008E05F000891
:103CF0000000F07FC55F0008BC5F0008995F000806
:103D00000000F83FD06000083B6000080124002359
:103D10000B9422934FF0FF3900221223CDF820900C
:103D20002392B0E701230B93F4E7DDF88C904B4628
:103D3000CDF82090A7E7013141605200A7E76B6AF8
:103D4000039A1A60089B0E2B00F2A880002C00F04A
:103D5000A580BAF1000F34DD9A4A0AF00F0302EB96
:103D6000C3031AF4807FD3E90034CDE910344FEA5D
:103D70002A1416D0DDE90C01934B0327D3E908235D
:103D8000FCF788FDCDE9040104F00F048E4E54B910
:103D9000DDE91023DDE90401FCF77CFDCDE9040138
:103DA00029E00227F2E7E10708D5DDE91001D6E9AD
:103DB0000023FCF745FCCDE91001013764100836FB
:103DC000E5E700F0A580DDE90C01CAF100047D4BB8
:103DD00004F00F0203EBC203D3E90023FCF730FC2D
:103DE00002270023CDE90401774E2411002C40F076
:103DF0008480002BD2D10F9B002B00F08B80DDE95B
:103E00000434CDE91034DDE9100100226F4BFCF7DA
:103E100089FE00287ED0089B002B7BD0B9F1000FD3
:103E200038DDDDE910010022694BFCF709FC4C4646
:103E3000CDE904010AF1FF3801373846FCF796FB5B
:103E4000DDE90423FCF7FCFB0022624BFCF742FA9D
:103E5000A1F15076CDE910011196002C5DD1DDE97C
:103E6000040100225C4BFCF733FA02460B46CDE915
:103E700004233346109AFCF773FE002840F09C821E
:103E8000DDE90401109A06F10043FCF74BFE00281F
:103E900040F09082DDE90C34CDE90434179B002B0F
:103EA000C0F25281BAF10E0F00F34E81454B03EB85
:103EB000CA03D3E90034CDE90634239B002B80F2FA
:103EC000DB80089B002B00F3D78040F07282DDE995
:103ED00006010022404BFCF7B3FBDDE90423FCF7AD
:103EE00035FE089C2646002840F048823123039F77
:103EF0000AF1010A07F8013B44E2E20705D5D6E9D9
:103F00000023FCF79DFB01230137641008366DE7A1
:103F1000022770E7D046089C8FE70399294B21447C
:103F200012910B9903EBC403DDE9106753E90223F7
:103F3000002955D000202949FCF7ACFC3B4632460D
:103F4000FCF7C6F9CDE91001039FDDE90401FCF798
:103F500027FE0446FCF70AFB02460B46DDE9040196
:103F6000FCF7B6F902460B463034CDE90423DDE90F
:103F7000102307F8014BFCF7D5FD002874D1DDE9CB
:103F8000042300201149FCF7A3F9DDE91023FCF715
:103F9000C9FD002840F0B780129B9F423FF47AAFE2
:103FA000DDE9100100220A4BFCF74AFB0022CDE9B3
:103FB0001001DDE90401064BFCF742FBCDE90401E9
:103FC000C3E700BFD0600008A86000080000F03F11
:103FD0000000244000001C40000014400000E03FAE
:103FE00030463946FCF72CFB129BCDE91001039CAF
:103FF0001493DDE90401FCF7D3FD1590FCF7B6FA44
:1040000002460B46DDE90401FCF762F9159B064602
:10401000303304F8013B129B0F469C424FF00002E4
:1040200024D1DDE91001B04BFCF754F902460B46F0
:1040300030463946FCF794FD002863D1DDE91023B2
:104040000020A949FCF744F902460B4630463946A0
:10405000FCF768FD00283FF41DAF149F7B1E1493EE
:1040600017F8013C302BF8D0C2463BE09F4BFCF7E1
:10407000E7FACDE90401BCE7039FDDE90489DDE946
:10408000062340464946FCF705FCFCF789FD04463B
:10409000FCF76CFADDE90623FCF7D2FA02460B4680
:1040A00040464946FCF714F904F1300607F8016B65
:1040B000039EDDF820C0BE1BB44502460B4636D138
:1040C000FCF708F9DDE9062380468946FCF748FD40
:1040D00058BBDDE9062340464946FCF719FD08B107
:1040E000E10722D42846594600F0F0FA00233B703D
:1040F000249B0AF101001860269B002B3FF4DEACE4
:104100001F60DBE427463B461F4613F8012D392A82
:1041100007D1039A9A42F7D13022039908F1010896
:104120000A701A7801321A709EE7D046EBE7002237
:104130006E4BFCF785FA0022002380468946FCF787
:10414000E7FC00289BD0CDE70B9A002A00F0D08036
:10415000229A012A00F3AE80139A002A00F0A6806A
:1041600003F233430A9C069F069A01211A440692E1
:10417000099A28461A44099200F05EFB0646002F71
:104180000CDD099B002B09DDBB42A8BF3B46069A0C
:10419000FF1AD21A0692099AD31A09930A9BF3B10D
:1041A0000B9B002B00F0A880002C10DD314622462E
:1041B000284600F0FFFB5A4601460646284600F016
:1041C00051FB80465946284600F080FAC3460A9BB8
:1041D0001A1B04D05946284600F0ECFB8346012107
:1041E000284600F029FB0E9B0446002B40F38680F6
:1041F0001A460146284600F0DDFB229B0446012BAF
:104200007FDD4FF00008236904EB8303186900F099
:10421000C5FAC0F12000099B184410F01F0000F0FF
:104220009280C0F12003042B40F38A80C0F11C006F
:10423000069B074403440693099B03440993069B8A
:10424000002B05DD59461A46284600F00DFC834632
:10425000099B002B05DD21461A46284600F004FC88
:1042600004460F9B002B70D02146584600F06CFC92
:1042700000286ADA002359460A22284600F048FA44
:104280000B9B83460AF1FF3A002B00F094813146E4
:1042900000230A22284600F03BFAB9F1000F064637
:1042A00000F39380229B022B57DC8EE0169BC3F118
:1042B000360357E7089B5C1E0A9BA342B7BF0A9BC5
:1042C0001C1BE21A0E9BBEBF0A949B180E93089B00
:1042D000B8BF0024002BBBBF069B089A069F9F1AFD
:1042E000ACBF089B00233FE70000E03F00002440F4
:1042F0000A9C069F0B9E42E70A9A6BE7229B012BC2
:1043000019DC049BBBB9059BC3F313039BB9059B45
:1043100023F000431B0D1B0583B14FF00108069BE2
:1043200001330693099B013309930E9B002B7FF405
:104330006AAF01206FE74FF00008F6E79846F4E710
:104340003FF47DAF18461C3072E7089B002B36DC2B
:10435000229B022B33DDDDF82090B9F1000F0DD147
:1043600021464B460522284600F0D2F90146044674
:10437000584600F0E9FB00283FF7B8AD239B039FA8
:104380006FEA030A4FF000082146284600F09EF924
:10439000002E3FF4A7AEB8F1000F05D0B04503D012
:1043A0004146284600F092F93146284600F08EF941
:1043B00098E600242646E1E7C246264696E50B9B92
:1043C000DDF82090002B00F0FD80002F05DD314648
:1043D0003A46284600F048FB0646B8F1000F5CD08C
:1043E0002846716800F032F9074628B9024640F2C3
:1043F000EA217F4BFFF728BB326906F10C0102323C
:1044000092000C3000F014F901223946284600F0E1
:104410002BFBB0460646039B01330893039B4B449A
:104420000A93049B03F001030993089B2146013B77
:1044300058460493FFF766FA034641463033069028
:1044400058460B9300F080FB3246814621462846B1
:1044500000F096FBC26807460B9B02BB014658461C
:1044600000F072FB02460B9B39462846CDE90B3221
:1044700000F02CF9229B0C9A089F43EA0201099B49
:104480000B430B9B0DD1392B29D0B9F1000F01DD66
:10449000069B3133049A137076E73046B9E7012260
:1044A000E2E7B9F1000F06DB229941EA090909990F
:1044B00059EA010120D1002AECDD594601222846A3
:1044C000089300F0D1FA2146834600F03DFB002816
:1044D000089B02DCDED1DA07DCD5392BD8D13923B1
:1044E000049A13703B461F4617F8012C013B392AEA
:1044F00050D001321A7047E7002A03DD392BEED085
:104500000133C7E7089A0A9902F8013C8A422AD087
:10451000594600230A22284600F0FAF8B04583469F
:104520004FF000034FF00A024146284607D100F041
:10453000EFF880460646089B0133089375E700F0C4
:10454000E7F83146804600230A22284600F0E0F8CA
:104550000646F0E7B9F1000FCCBF4F4601274FF0F8
:104560000008039A1744594601222846089300F090
:104570007BFA2146834600F0E7FA0028B2DC02D13C
:10458000089BDB07AED43B461F4613F8012D302AAB
:10459000FAD0F9E6039A9A42A5D131230AF1010A29
:1045A00079E7144BFFF7A8BA269B002B7FF481AA6A
:1045B000114BFFF7A1BAB9F1000F03DC229B022BCC
:1045C0003FF7CBAE039F21465846FFF79BF9039A6E
:1045D00000F1300307F8013BBA1A9145BADD59469C
:1045E00000230A22284600F093F88346EBE700BF39
:1045F0003B600008985F0008BC5F000800487047F7
:1046000060010020024B0146186800F01DBC00BF8D
:104610000C000020034610B5C9B20244934218466C
:1046200001D1002003E0047801338C42F6D110BDA3
:104630000A44914200F1FF3300D1704710B511F8E0
:10464000014B914203F8014FF9D110BD70B5466A94
:1046500004460D4676B91020FFF7D4FF024660628B
:1046600020B96621174B184800F0CEFDC0E901665D
:104670000660C660666AF36883B1636ADB6853F8F4
:104680002500B8B9012101FA05F6721D20469200F5
:1046900000F05EFB60B1C0E901560EE0212204216A
:1046A000204600F055FB636AF060DB68002BE4D124
:1046B000002070BD026843F825200023C0E90333C1
:1046C000F7E700BFC95F00084C60000870B5466A94
:1046D00005460C4676B91020FFF794FF0246686243
:1046E00020B98A21084B094800F08EFDC0E9016617
:1046F0000660C6603CB16B6A6268DB6853F82210E2
:10470000216043F8224070BDC95F00084C6000087A
:104710002DE9F04107460C461E4600200D6901F1C7
:10472000140CDCF80030013099B202FB01611E0C60
:104730000B0C02FB063389B201EB034185424FEAC1
:1047400013464CF8041BECDC0EB3A368AB4219DC37
:10475000616838460131FFF779FF804628B9024683
:10476000B5210C4B0C4800F04FFD226904F10C01FF
:10477000023292000C30FFF75BFF21463846FFF70C
:10478000A5FF444604EB850301355E6125612046A3
:10479000BDE8F0813B6000084C600008020C120488
:1047A0000346CAB90304102013F07F4F04BF1B0255
:1047B000083013F0704F04BF1B01043013F0404F5A
:1047C00004BF9B000230002B05DB13F0804F00F18B
:1047D000010008BF202070470020E5E7036802467B
:1047E00013F007000BD0D90721D4980749BF5B0805
:1047F0009B08012013605CBF02201360704799B2D0
:1048000009B910201B0CD9B209B908301B0A1907C5
:1048100004BF1B090430990704BF9B080230D90765
:1048200003D45B0800F1010003D01360704700203F
:10483000704720207047000010B50C460121FFF79B
:1048400005FF024628B94FF4A071044B044800F05C
:10485000DBFC01234461036110BD00BF3B60000825
:104860004C6000082DE9F04F91460A69D9F81030E4
:104870000C469A42BEBF0B464C4699462769D9F86A
:1048800010A0A368616807EB0A06B34285B0B8BF01
:104890000131FFF7DBFE30B9024640F25D11434BB8
:1048A000434800F0B1FC00F114052B46002205EB53
:1048B0008608434521D304F1140303EB870709F16C
:1048C000140303EB8A0202923A1B153A22F0030208
:1048D000043204F115018F4238BF04220192029A7A
:1048E00003939A420CD8002E03DD58F8043D002BA8
:1048F00059D0066105B0BDE8F08F43F8042BD8E726
:10490000B3F800A0BAF1000F23D0A9464FF0000C75
:1049100004F1140E5EF8042BD9F800101FFA82FB84
:1049200089B20AFB0B116144D9F800C0120C4FEA9E
:104930001C4C0AFB02C202EB114289B241EA02415D
:1049400077454FEA124C49F8041BE3D8019A45F821
:1049500002C0039A0433B2F80290B9F1000F20D0DC
:10496000AE464FF0000A296804F1140CBCF800B000
:10497000BEF8022089B209FB0B22924441EA0A41A7
:104980004EF8041B5CF8042BBEF80010120C09FB57
:104990000211674501EB1A414FEA114AE6D8019A24
:1049A000A95004359BE7013E9DE700BF3B6000082E
:1049B0004C6000082DE9F843154612F00302064644
:1049C0000F4607D0254C013A002354F82220FFF768
:1049D0009FFE0746AD103DD0746A7CB91020FFF7EA
:1049E00011FE0246706228B94FF4D7711C4B1D4866
:1049F00000F00AFCC0E901440460C460D6F82480D9
:104A0000D8F808404CB940F271213046FFF714FF46
:104A100000230446C8F8080003604FF00009EB07C4
:104A20000AD5394622463046FFF71CFF80463946F4
:104A30003046FFF74BFE47466D100BD0206838B963
:104A4000224621463046FFF70DFF2060C0F8009057
:104A50000446E4E73846BDE8F88300BF98610008E3
:104A6000C95F00084C6000082DE9F0470C46074676
:104A700091462369496803EB6218A3684FEA621AFA
:104A800008F10106B3420BDB3846FFF7DFFD0546B0
:104A900048B9024640F2D911294B2A4800F0B4FB2C
:104AA00001315B00EEE7002300F1140100F1100278
:104AB0001846534537DB20692AEAEA7A04F11403E1
:104AC00019F01F0901EB8A0103EB80002FD08A4601
:104AD0004FF0000CC9F1200E1A6802FA09F242EAFE
:104AE0000C024AF8042B53F8042B984222FA0EFCCD
:104AF000F2D8031B153B23F00303043304F1150222
:104B0000904238BF042341F803C0BCF1000F01D02C
:104B100008F10206013E384621462E61FFF7D6FD18
:104B20002846BDE8F08742F8040F0133C1E7043995
:104B300053F8042B984241F8042FF9D8EAE700BF54
:104B40003B6000084C60000803460A69006930B504
:104B5000801A0DD11433143103EB820401EB82016E
:104B600054F8045D51F8042D954202D004D301207D
:104B700030BDA342F4D3FBE74FF0FF30F8E700006D
:104B80002DE9F84F0D460746114628461446FFF713
:104B9000DBFF061E11D131463846FFF757FD0246AE
:104BA00028B940F232213A4B3A4800F02DFB01235C
:104BB000C0E904361046BDE8F88FA4BF23462C4652
:104BC00038466168A6BF1D4600260126FFF73EFD58
:104BD000024618B94FF410712D4BE5E702F11408A5
:104BE000C2464FF0000C2769C6602E6904F114001C
:104BF00005F1140900EB870E09EB8606103454F812
:104C000004BF59F8043B1FFA8BF18C4499B21B0C7A
:104C1000ACEB0101C3EB1B4303EB214389B24FEA29
:104C2000234C4E4541EA03434AF8043BE7D8731B43
:104C3000153B23F0030315350433AE4238BF04237C
:104C4000184443441E46054675450ED30EF1030134
:104C5000091A21F003010338864538BF00211944A1
:104C600051F8043D8BB11761A4E755F8048B1FFA86
:104C700088F161440C1404EB184489B241EA044100
:104C80004FEA244C46F8041BDEE7013FE8E700BF8B
:104C90003B6000084C6000082DE9F3410121DDE98B
:104CA000087690461D46FFF7D1FC044630B902460F
:104CB00040F20A31244B254800F0A6FAC5F313034D
:104CC000C5F30A552DBB0193B8F1000326D0684601
:104CD0000093FFF783FD0099F0B1019AC0F1200322
:104CE00002FA03F30B43C24063610192019B002B64
:104CF00014BF02210121A3612161C5B1A5F2334591
:104D00000544C0F135003D603060204602B0BDE88A
:104D1000F08143F48013D6E76161E7E701A8FFF76C
:104D20005DFD0121019B216163612030E5E704EB1A
:104D30008103A0F2324038601869FFF72FFDC0EB05
:104D400041113160E1E700BF3B6000084C600008A2
:104D500070B5A1FB025434B9294600F075F8064637
:104D600028B9304670BD0C2200260260F9E72A46B9
:104D70002146FEF72BF9F4E738B50546002940D067
:104D800051F8043C0C1F002BB8BFE41800F098FA4F
:104D90001C4A136833B9636014602846BDE8384084
:104DA00000F094BAA34208D9206821188B4201BFB1
:104DB00019685B6809182160EDE71A465B680BB15A
:104DC000A342FAD911685018A0420BD120680144BF
:104DD000501883421160E0D118685B68014411608B
:104DE0005360DAE702D90C232B60D6E7206821183C
:104DF0008B4201BF19685B680918216063605460C9
:104E0000CBE738BD1003002070B50E4E0C4631685C
:104E1000054611B900F0E8F930602146284600F057
:104E2000E3F9431C0AD0C41C24F00304A04207D0B9
:104E3000211A284600F0D8F9013001D14FF0FF3493
:104E4000204670BD140300202DE9F041CD1C25F053
:104E5000030508350C2D38BF0C25002D074601DB56
:104E6000A94205D90C2300263B603046BDE8F081FD
:104E70002E4E00F025FA33681C4634BB29463846CE
:104E8000FFF7C2FF431C04464DD134682646002E6E
:104E900040D123683146384604EB030800F0A4F9FA
:104EA00080453AD1216803356D1A25F00305083590
:104EB0000C2D38BF0C2538462946FFF7A5FF0130D9
:104EC0002BD023682B4423600EE02268521B1ED493
:104ED0000B2A16D96119A342256018BF596063686F
:104EE00008BF316062514B60384604F10B0600F098
:104EF000EDF926F00706231DF21AB6D09B1BA3502E
:104F0000B3E76268A3420CBF32605A60ECE7234605
:104F10006468B2E734467668B9E70C2338463B60EC
:104F200000F0D4F9A1E72560DEE700BF1003002000
:104F30002DE9F0478E6882469E420C4690461F46F9
:104F400038D88A8912F4906F32D025680969013304
:104F5000A5EB010965694B4405EB450505EBD575E6
:104F60006D109D4238BF1D46530531D52946FFF7C8
:104F70006BFF064650B90C234FF0FF30CAF80030E3
:104F8000A38943F04003A381BDE8F0874A46216925
:104F9000FFF74EFBA38923F4906343F08003A381C2
:104FA00026614E4426603E466561A5EB0905A56075
:104FB000BE4200D93E4632464146206800F066F9BE
:104FC000A36800209B1BA360236833442360DBE7B6
:104FD0002A4600F081F906460028E1D150462169B1
:104FE000FFF7CAFEC7E700002DE9F04F98468B890E
:104FF00007461B060D4614469DB00ED50B6963B9D6
:105000004021FFF721FF2860286120B90C233B6075
:105010004FF0FF30D1E040236B6100230993202340
:105020008DF8293030234FF00109CDF80C80DFF8DE
:10503000A4818DF82A3023469A4613F8012B0AB131
:10504000252AF9D1BAEB040B0BD05B462246294640
:105050003846FFF76DFF013000F0AA80099A5A44E4
:1050600009929AF80030002B00F0A28000234FF044
:10507000FF32CDE905230AF1010A049307938DF865
:1050800053301A935446052214F8011B5148FFF778
:10509000C1FA049AD8B9D00644BF20238DF8533002
:1050A000110744BF2B238DF853309AF800302A2B78
:1050B00015D0544600204FF00A0C079A214611F8EB
:1050C000013B303B092B4ED9B0B1079214E0A0EB65
:1050D000080309FA03F31343A2460493D2E7039BA0
:1050E000191D1B680391002BBBBF5B4242F00202FB
:1050F00007930793B8BF049223782E2B0CD16378C3
:105100002A2B35D1039B02341A1D1B680392002BF6
:10511000B8BF4FF0FF330593DFF8BCA00322504621
:105120002178FFF777FA40B14023A0EB0A0003FA99
:1051300000F0049B01340343049314F8011B06227E
:1051400026488DF82810FFF765FA002838D0244B40
:105150001BBB039B073323F0070308330393099B0F
:105160003344099367E70C4601200CFB0232A5E7A4
:1051700000234FF00A0C194601340593204610F81D
:10518000012B303A092A03D9002BC5D00591C3E77A
:10519000044601230CFB0121F0E703AB00932A46F0
:1051A0003846104B04A9FDF7B7FF421C0646D6D17E
:1051B000AB895B063FF52CAF09981DB0BDE8F08FB9
:1051C00003AB00932A463846064B04A9FEF740FA83
:1051D000EBE700BFA4610008AA610008AE61000807
:1051E00019310008314F000838B50023054D044639
:1051F00008462B60FDF74EFE431C02D12B6803B11D
:10520000236038BD180300201FB514461A46094B09
:1052100005461B68D8684CB1074BCDE901340091B5
:105220002B46064900F00EF800F0AAFA044B1C4683
:10523000F3E700BF0C000020B5610008C261000860
:105240005C5F00080EB403B5014603AB054853F894
:10525000042B0068019300F095F802B05DF804EBB0
:1052600003B070470C00002082B001B901A942B11F
:105270004BB113780B601278101E18BF012002B0DA
:1052800070471046FBE76FF00100F8E7884210B561
:1052900001EB020402D98442234607D8431EA142EF
:1052A00008D011F8012B03F8012FF8E7014602445A
:1052B0008A4200D110BD13F8014D02F8014DF7E705
:1052C000014800F019BC00BF1C030020014800F099
:1052D00014BC00BF1C0300202DE9F0418046144699
:1052E0000E4621B91146BDE8F041FFF7ADBD2AB920
:1052F000FFF742FD25462846BDE8F08100F064FC3A
:105300008442074602D8B4EB500F12D821464046DB
:10531000FFF79AFD05460028EDD0BC4222463146F3
:1053200028BF3A46FFF784F931464046FFF724FD8F
:10533000E1E73546DFE7936810B4013B002B93604B
:1053400007DA9469A34201DB0A2902D110BC00F0FC
:1053500049B91368581C10601970084610BC704792
:10536000F8B506460F461446D518AC4201D10020C8
:1053700007E03A46304614F8011BFFF7DCFF431CF8
:10538000F3D1F8BD2DE9F04F0D4614469846064678
:105390009DB018B183690BB900F010FB894B9D4299
:1053A0001BD175686B6ED90705D4AB899A0502D4F9
:1053B000A86D00F0A1FBAB891B0701D52B69EBB9E8
:1053C0002946304600F06EF9C0B16B6EDC070ED591
:1053D0004FF0FF301DB0BDE8F08F7B4B9D4201D1F7
:1053E000B568DFE7794B9D4208BFF568DAE7AB891E
:1053F0009805EDD4A86D00F080FBE9E70023099340
:1054000020238DF8293030234FF00109CDF80C808E
:10541000DFF8BC818DF82A3023469A4613F8012B19
:105420000AB1252AF9D1BAEB040B0BD05B46224610
:1054300029463046FFF794FF013000F0AA80099A10
:105440005A4409929AF80030002B00F0A280002301
:105450004FF0FF32CDE905230AF1010A04930793C7
:105460008DF853301A935446052214F8011B5848FE
:10547000FFF7D0F8049AD8B9D10644BF20238DF89D
:105480005330130744BF2B238DF853309AF8003064
:105490002A2B15D0544600204FF00A0C079A2146BB
:1054A00011F8013B303B092B4ED9B0B1079214E003
:1054B000A0EB080309FA03F31343A2460493D2E7CF
:1054C000039B191D1B680391002BBBBF5B4242F07D
:1054D000020207930793B8BF049223782E2B0CD1B6
:1054E00063782A2B35D1039B02341A1D1B68039263
:1054F000002BB8BF4FF0FF330593DFF8D8A003228D
:1055000050462178FFF786F840B14023A0EB0A000F
:1055100003FA00F0049B01340343049314F8011BC5
:1055200006222D488DF82810FFF774F800283FD088
:105530002A4B1BBB039B073323F00703083303935A
:10554000099B3B44099367E70C4601200CFB0232A0
:10555000A5E700234FF00A0C1946013405932046B5
:1055600010F8012B303A092A03D9002BC5D0059138
:10557000C3E7044601230CFB0121F0E703AB0093D2
:105580002A463046164B04A9FDF7C6FD0746781C8F
:10559000D6D16B6ED90705D4AB899A0502D4A86D14
:1055A00000F0ABFAAB895B063FF512AF099811E743
:1055B00003AB00932A463046094B04A9FEF748F88E
:1055C000E4E700BF1C6300083C630008FC620008BD
:1055D000A4610008AA610008AE6100081931000842
:1055E00061530008F8B50E461446054618B18369A4
:1055F0000BB900F0E3F9214B9C422BD16C68A369F5
:10560000A360A3891A072FD523696BB32369206888
:10561000F6B2C01A63693746834204DC2146284645
:1056200000F038F930BBA3680130013BA360236868
:105630005A1C22601E706369834204D0A389DB0771
:1056400006D50A2E04D12146284600F023F988B950
:105650003846F8BD0A4B9C4201D1AC68CFE7094BF4
:105660009C4208BFEC68CAE72146284600F01AF8B9
:105670000028CBD04FF0FF37EAE700BF1C630008DB
:105680003C630008FC6200080346084641B1FF2A5B
:1056900004D98A224FF0FF301A60704701200A7047
:1056A00070470000324B70B51D6806460C4625B1A8
:1056B000AB6913B9284600F081F92E4B9C420FD1FB
:1056C0006C68A389B4F90C2019072CD4DD0611D419
:1056D0000923336042F040034FF0FF30A3813EE0E6
:1056E000254B9C4201D1AC68EBE7244B9C4208BFA0
:1056F000EC68E6E7580712D5616B41B104F1440349
:10570000994202D03046FFF737FB00236363A38939
:1057100023F02403A3810023636023692360A3890A
:1057200043F00803A38123694BB9A38903F42073D1
:10573000B3F5007F03D02146304600F005FAA0897A
:10574000B4F90C2010F001030AD00023A3606369B0
:105750005B42A361236943B910F08000BAD170BDE8
:10576000810758BF6369A360F4E70020F7E700BF33
:105770000C0000201C6300083C630008FC62000869
:10578000062008B500F050FA0120FDF761FB00008B
:105790008A89F8B5054610070C4657D44B68002B8C
:1057A00004DC0B6C002B01DC0020F8BDE66A002E47
:1057B000FAD0002312F480522F682B6032D0606D33
:1057C000A3895A0705D56368C01A636B0BB1236CB4
:1057D000C01A00230246E66A2846216AB047431CE5
:1057E000A38906D129681D292CD8294ACA40D60781
:1057F00028D5002262602269D904226004D5421CA7
:1058000001D12B6803B96065616B2F600029CBD093
:1058100004F14403994202D02846FFF7ADFA002074
:105820006063C2E7216A01232846B047411CC7D103
:105830002B68002BC4D01D2B01D0162B01D12F605B
:10584000B2E7A38943F04003A381AEE70F69002FBD
:10585000AAD0930718BF00230E6808BF4B69F61B38
:105860000F608B60002E9FDD33463A462846216A42
:10587000D4F828C0E047002806DCA3894FF0FF30A9
:1058800043F04003A38190E70744361AEAE700BFDC
:105890000100402038B50B6905460C4613B90025B8
:1058A000284638BD18B183690BB900F087F8144B4E
:1058B0009C421BD16C68B4F90C30002BEFD0626EA7
:1058C000D00704D4990502D4A06D00F015F928463C
:1058D0002146FFF75DFF636E0546DA07E0D4A38932
:1058E0009B05DDD4A06D00F008F9D9E7054B9C427B
:1058F00001D1AC68DFE7044B9C4208BFEC68DAE7F3
:105900001C6300083C630008FC620008002310B51B
:105910000446C0E90033C0E90433836081814366F3
:10592000C2818361194608225C30FDF74FFB054BAD
:1059300024626362044BA362044BE362044B23635F
:1059400010BD00BF615C0008835C0008BB5C000800
:10595000DF5C0008014900F0AFB800BF95580008AF
:10596000682270B54D1E55430E4605F17401FFF7D0
:105970006BFA044640B10021C0E900160C30A0606B
:1059800005F16802FDF722FB204670BD014800F0DA
:10599000B3B800BF1D030020014800F0AEB800BF3F
:1059A0001D030020014800F0A7B800BF1E0300201F
:1059B000014800F0A2B800BF1E03002010B5044645
:1059C000FFF7F0FFA3691BB1BDE81040FFF7F0BF80
:1059D000C4E912332365134B134A1B68A262A34226
:1059E00008BF0123204608BFA36100F01FF86060D4
:1059F000204600F01BF8A060204600F017F80022B7
:105A00000421E0606068FFF781FF01220921A0689E
:105A1000FFF77CFF02221221E068FFF777FF0123E6
:105A2000A361D1E7845F000855590008F8B507461F
:105A3000FFF7ACFF1E4B1E68B36913B93046FFF782
:105A4000BDFF4836D6E90134013B03D533680BB3BB
:105A50003668F7E7B4F90C50D5B9164B04F1580085
:105A6000E360656600F047F8FFF796FF08222946D5
:105A7000C4E90155C4E904552560A56104F15C0041
:105A8000FDF7A4FAC4E90D55C4E912552046F8BD46
:105A90006834D9E704213846FFF762FF04463060D6
:105AA0000028D5D1FFF778FF0C233B60EEE700BF5D
:105AB000845F00080100FFFF2DE9F8430646884691
:105AC000002700F14804D4E90195B9F1010905D591
:105AD0002468002CF7D13846BDE8F883AB89012B48
